:1000000000080400000000000418000008180000A8
:100010000C18000010180000141800001818000038
:100020001C180000201800002418000028180000E8
:100030002C18000030180000341800003818000098
:100040003C18000040180000441800004818000048
:100050004C180000501800005418000058180000F8
:100060005C180000601800006418000068180000A8
:100070006C18000070180000741800007818000058
:100080007C18000080180000841800008818000008
:100090008C180000901800009418000098180000B8
:1000A0009C180000A0180000A4180000A818000068
:1000B000AC180000B0180000B4180000B818000018
:1000C000BC180000C0180000C4180000C8180000C8
:1000D000CC180000D0180000D4180000D818000078
:1000E000DC180000E0180000E4180000E818000028
:1000F000EC180000F0180000F4180000F8180000D8
:10010000FC18000000190000041900000819000084
:100110000C19000010190000141900001819000033
:100120001C190000201900002419000028190000E3
:100130002C19000030190000341900003819000093
:100140003C19000040190000441900004819000043
:100150004C190000501900005419000058190000F3
:100160005C190000601900006419000068190000A3
:100170006C19000070190000741900007819000053
:100180007C19000080190000841900008819000003
:100190008C190000901900009419000098190000B3
:1001A0009C190000A0190000A4190000A819000063
:1001B000AC190000B0190000B4190000B819000013
:1001C000BC190000C0190000C4190000C8190000C3
:1001D000CC190000D0190000D4190000D819000073
:1001E000DC190000E0190000E4190000E819000023
:1001F000EC190000F0190000F4190000F8190000D3
:101000000FC320000E7F24000E01880000000000A6
:10101000000020000000E00002003200000120007B
:101020002002880014000700790007000000E0009B
:1010300003003A00202221000100200002003700B6
:101040000000200001002000810F7000010032002C
:1010500014000700000020000000E0000200320041
:1010600000000200000000004C0E02000000000022
:101070000040DA000000FE004440A9000002200009
:101080000000E000030032000020200090018800F2
:101090004440A800000006008A1F78008B1F7800DB
:1010A00000000600A1028800800478000000EB0028
:1010B0001F003700E284440054A0B4009905BA0030
:1010C000E284440054A0B4009906BA00E2844400CB
:1010D00054A0B4000006EB00476FDE00FD07B2002D
:1010E000AE018800636CE10003003A00EAFF0700EC
:1010F0000000EB000E003700606CE10008003A00D1
:10110000004DEB000A05E800020039003420EC0035
:101110000AF0A0008B05E900F9FF3E00040037004B
:101120006168E100010032000086EB000B0007005F
:1011300019C7BA001905BA000E04E00003003A000E
:101140000A00E000DBFF3A0000000600FE07B200E4
:10115000AE0288008A047800F5FF37000CD0A300A7
:10116000E20F4D001C00390089027800354DBA00AD
:101170000A05E800020039003420EC000AF0A00063
:101180008B05E9000F003200254DBA000A05E80082
:10119000020039003420EC000AF0A0008B05E900C1
:1011A000080032000C00E0000600320015CDBA0045
:1011B0000A05E800020039003420EC000AF0A00023
:1011C0008B05E9008984E80054A0B4000B00E0001E
:1011D000E2FF3A00000006009902BA00055D7800BF
:1011E0008B05E900F7FF3200C82ADE00055D7800B4
:1011F0008B05E900F3FF32000C00E000F1FF320044
:1012000019DDBA00EEFF37000040DA000000FE00F2
:101210000000050000000000211000004220000036
:101220006330000084400000A5500000C66000004C
:10123000E770000008810000299100004AA1000029
:101240006BB100008CC10000ADD10000CEE1000008
:10125000EFF10000A10280005420EF00C09F2100A8
:101260001000BA008180FB00A10288000000060087
:10127000000001000000060001017800A0028800C3
:101280009201BA00030078009280BA0000000600C4
:10129000EE874700889FBE008A9FBE008C9FBE00DD
:1012A0008E1F78009201800000F02A0001102000BB
:1012B00000F0A4008180D200910188001000780025
:1012C0009201880080057800900180000CF12A00CE
:1012D0000D1020000CF0A4008D86D2009D01880026
:1012E0001C067800900188009201800040F12A00DD
:1012F0000110200000F0A4008180D200910188003C
:10130000100078009201880080067800900180002B
:1013100088F12A000910200008F0A4008984D20076
:1013200099018800180478009001880092018000DB
:10133000C0F12A000110200000F0A4008180D2003A
:1013400091018800100078009201880080047800E4
:101350009201800000F22A000110200000F0A40099
:101360008180D200910188001000780092018800ED
:10137000000778009201800040F22A00011020004E
:1013800000F0A4008180D200910188001000780054
:101390009201880080BF9F009201800080F22A00A5
:1013A0000110200000F0A4008180D200910188008B
:1013B00010007800920188000005780092018000FA
:1013C000C0F22A000110200000F0A4008180D200A9
:1013D000910188001000780092018800F0B79F000A
:1013E00088007800F107B2000040EB00FB8F50004E
:1013F0000400320000F82F0000046400B801B300BC
:1014000010C0B300EB806400E28F50000400320093
:1014100040FF2F00808464000910A00010C0B300BA
:101420008A0078003102B200E28F500004003200DE
:10143000C0FD2F00000565000A10A0000200370063
:101440000004E0005000320000C0EB00E0E79F0025
:10145000F0E79F0080EF9F0090EF9F00A0EF9F00BC
:10146000B0EF9F00C0EF9F00D0EF9F0000802A00E8
:1014700001002000A7030700EBE79F00C85DDE0026
:10148000FBE79F0000F02A00011020007A8157003E
:10149000B7030700ECE79F004866DE00FCE79F000B
:1014A00000F12A00011020007A815700B0030700E4
:1014B000EDE79F00C86EDE00FDE79F0040F12A00C7
:1014C000011020007A815700A9030700E8E79F0078
:1014D0004844DE00F8E79F0080F12A000110200058
:1014E0007A815700A2030700E9E79F00C84CDE009D
:1014F000F9E79F00C0F12A00011020007A8157000F
:101500009B030700EEE79F004877DE00FEE79F00A1
:1015100000F22A00011020007A815700940307008E
:101520008FF09700E1E79F008FB897004808DE0032
:10153000F0E79F0040F22A00011020007A81570056
:101540008B030700EAE79F004855DE00FAE79F009B
:1015500080F22A00011020007A81570084030700DE
:101560006FE89700E0E79F00FFB097004808DE00B3
:10157000F0E79F00C0F22A00011020007A81570096
:101580007B0307000000FE004F0778004F06BE00F7
:101590004F05BE004F04BE00EF00B1000000060082
:1015A0006686A8006286A90000000600EA87470058
:1015B000889FBE008A9FBE008C9FBE008E1F780051
:1015C000800578000106780010C0B300E40F5600D3
:1015D000B60036001B457800C0C120000A487800DC
:1015E000BB419000660040000348780064824500DB
:1015F000246188008A80FB000040EB00810F5600C8
:101600000E003100A90037008A8545001B4578008F
:10161000C0C120000A487800BB419000660040002D
:101620000348780064824500246188000A80FB003A
:101630008C0F500003003600970037007387570067
:10164000EF8657000A85FB00650545000B01780011
:101650000000EB008040EB00B2C040000000E8005A
:10166000800F5500FCFF3E000104E0008C003A00B2
:10167000E2CF510062003200E4CF51006E00320030
:101680000304E0007A003A000040EB0011C22000A1
:10169000804878008100E900804878000100E90076
:1016A0009B409000014878000000E900AB419000A9
:1016B00003487800EE0040001002BE0031014200F5
:1016C000A1814A00E4805000311841002190490076
:1016D0000080E900904078000104E00069003200D9
:1016E0008084E8001901BE008301D1000281D3008B
:1016F00088002000E7CF500001003E000184FB007D
:1017000004802E00F5FF2F000200420083804A0073
:10171000F57F2900850F5000E08F58002D003E0016
:101720006302610004005100E08059000400E00001
:1017300013003A00E70F54000600360023618000D2
:1017400077815700336978008D0F5100FDFF3A0013
:101750001C003700236180007781570033697800CF
:101760008E0F5100FDFF3A0000C1EB00E2EF9F0039
:10177000F2EF9F0082F79F0092F79F001100370061
:10178000E70F5400010036004800200000C1EB00C4
:10179000A2EF9F00B2EF9F00C2EF9F00D2EF9F0029
:1017A0002261800092417800E3EF9F001242900096
:1017B000F4EF9F00A242900085F79F003241900015
:1017C00092F79F0076815700E9020700E14F500031
:1017D00035003200991C44000000EB0099144800C9
:1017E00040C220001008440068005000904078007B
:1017F00088C0500001487800BAFF3A002100370045
:101800000040EB00B1C22000804878008100E90070
:10181000944878008100E9001442900084487800E0
:101820008100E900804878006022B8006461880087
:101830007561880013003700F0C22000144878005A
:101840000000E90014429000044878000040EB00DA
:10185000D1C22000804878008100E90080487800EB
:101860006000B800406188005161880005003700C1
:101870006022B80044618800556188006461880076
:10188000756188000A065600E40F56005EFF3E00B0
:1018900010C0B300050037000040EB000300370024
:1018A0000040EB00010037000040EB004F077800DC
:1018B0004F06BE004F05BE004F04BE00AF00B10092
:1018C00000000600E6874700889FBE008A9FBE0092
:1018D0008E1F78008104D1000084D3008000EB00CB
:1018E000E00F5100E08F590038003200A49028002A
:1018F0000980FB00A00288009882BA00A5BF9F0063
:101900001800BA0090BF9F004C0BDE002FF097002C
:101910008082FB004428DE0000006B0000004000D5
:1019200064007800C408DD0001006800CC00DE001F
:1019300085806800EF80600081804000E48078004E
:101940004400DD008080680061035100E08359009D
:101950001E0032006E87570064055100E085590073
:101960000601BE00CC0ADE005E83FB004430DE00D0
:1019700080826A0085824200E4827A00C408DD0029
:1019800081826A00CC28DE0086806800EF806000DB
:1019900081804000E4807800C42ADD0085806800F2
:1019A00061015100E0815900080032008A0F5100A6
:1019B0008B8F5900EBFF3A0062044400E0844C0036
:1019C000E00F5100E08F5900C9FF3A000100780094
:1019D0004F0778004F05BE004F04BE006F00B100F6
:1019E00000000600E4874700889FBE008A9FBE0073
:1019F0008C9FBE008E1F78000101070000010700C8
:101A000000477800FE0007000084FB00FC00070090
:101A10004800DD00080470001601070080BF9F0029
:101A200050C5B300804F5700350032000A003E0019
:101A300074405000804F57000F0032000001EB004F
:101A40008040EB001AC0B30073404000804F570045
:101A500084003A008600370070C5B300804F5700FD
:101A600049003200150039000040E800804F57005F
:101A70007C003A007300370020C4B3008FB8970091
:101A80008048780010C8B30090409800F1FD07002E
:101A90000FB99700204198004800DE0030419800BF
:101AA00010C0B300404198005041980062002000EF
:101AB0008040EB00014578006D0037000001EB002D
:101AC00021C0B3001AC0B300E40F54006800360010
:101AD000880078000FB89700D300070088007800CE
:101AE0000FB89700B1FE07000001EB0021C0B30062
:101AF0000004E0005E0032008040EB005C00370034
:101B00000C8021000D00200008802000090020002A
:101B10000A002B000B0020000C00BE00FD01070096
:101B20000C0644008D864C008A0F56008B8F5E0099
:101B3000F9FF3A0000C0EB008FB8970080487800AA
:101B4000F1C7B3000FB997001141980020419800E8
:101B50008040EB003141980040419800504198008E
:101B6000604198007141980040F12A000110200066
:101B70000FB99700FE0107000001EB008040EB0069
:101B80001AC0B3003A0037000001EB0021C0B300D7
:101B90001AC0B300E80F540035003A00980007005F
:101BA0006055B8000DF02F000084FB009400070082
:101BB0004800DD0008057000910007000080FB0070
:101BC0000B846600080470008D0007004800DD00EB
:101BD000F10F2000010464008805700088000700F0
:101BE0006044B8000086FB00850007004800DD0067
:101BF0000C047000820007000080FB00098666006C
:101C00000C0670007E0007004800DD00F20F200087
:101C1000020666008C0470000801BE000A00BE00C7
:101C200028FF07008FB89700804878004800DE0042
:101C300090409800220020008040EB001AC0B300C2
:101C40000B0037001AC0B300E28020000A49780078
:101C50009001F8001008F9000001EB008040EB0053
:101C6000030037000001EB0011C0B3000045EB009A
:101C70000E407800F70007000268EF000A40780085
:101C80004F0778004F06BE004F05BE004F04BE0050
:101C90004F00B10000000600889FBE008A9FBE0072
:101CA0008C9FBE008E1F780079FD07000E68EF0044
:101CB0006000B80060618800716188004061880040
:101CC000516188000280210003002000820078001A
:101CD0000300780068FD07007B46A8007746A9004E
:101CE000000000007946AB000A003200F2FF2F002E
:101CF000F30F2000020068008380680000807000FD
:101D000000F0A7000000EA000000E9004F04DE0038
:101D1000020037007B46A90018C0B3007746A80030
:101D20009421EF00000320009421B70095E1A80062
:101D30008A0C80001AFE07000C28EF004F000700F5
:101D40008A0478007B8321007C9127001EC0B300A9
:101D50007D4D20000060FE000804E000100032000D
:101D6000090078009001B5008B0F5000120036007A
:101D7000890C800030338000700060000000E900B2
:101D80004F00DE004400DD00F2FE2F003333800000
:101D90008300610081007000313388000600370045
:101DA0000A0078009001B5008C0F50000200360048
:101DB000008021002EFD0700C40007000248E20059
:101DC0000600320007FF07000004E00001003200B7
:101DD0000E447800008020000E4878000E48E20093
:101DE000DCFF3200804080009001B5008D0F500074
:101DF000D8FF3600008021001DFD0700D5FF370009
:101E00003140800080A1200060C078008100E8009F
:101E10003140880032202000828F500001003600BF
:101E20000628EF00000006000100E0000E0032006E
:101E30000001EB0085A12000342020000003EB000E
:101E40003340800065D879008301E8003340880082
:101E5000848F510001003600364088000201E800FE
:101E6000828F5000F6FF3E000000060040408000D8
:101E70000000060080812000000006000168EF00DD
:101E80000068EF000428EF000368EF007686A800E2
:101E900076A6A8007726A80076C6A80001FC2F0029
:101EA000D23D8000028060000020A000D03D88006C
:101EB000C33D8000038060006000B300C03D880027
:101EC000F20F2C00C43D800084016100005020000E
:101ED00003007000C03D8800F00F2800E53E800040
:101EE000050260000370200084817100E33E8800D9
:101EF0009F40A9009940A900F423EF00032080002F
:101F00000BE4A80053208000030161000280A000C0
:101F1000522088000AE4A8005420800084806000D9
:101F20000100A000512088008F40A9008940A9002D
:101F3000FCC3A900F4E3A800F403A800F503A9007A
:101F4000F623EF00F783A800F7A3A800F743A80043
:101F5000F823EF000C24EF000180200041268800C8
:101F6000CAA4EF00C5E4A800D604A900F4F32F002A
:101F7000654D2000950A6200F3FC2F00B226800018
:101F8000828061000140A000B1268800D624A8000C
:101F900032FF2F00B5268000850061000120A000DF
:101FA000B1268800D724A800D824EF00C1268000DD
:101FB000810260000160220085807000C1268800D7
:101FC00001402000D126880085A12000E526880058
:101FD00045202000F5268800D604A800CC04A900DE
:101FE00065268000050262000460A0006426880067
:101FF000C44C2000148A6100CC24A800C54C2000E9
:10200000950A6100CD24A800228120008226880044
:1020100091268800D424EF00CE24EF00CE04B60031
:102020000170220080807000712688007886AB00E5
:10203000FEFF320083E0A9007886AB000300320087
:10204000F5E3A80083E0A8000000060083E0A800F4
:10205000F8FF370003202000830F51001A003E00D4
:102060002381200080C9EB00B4CDB3008301E800D8
:10207000844978008301E800804978000300E80083
:10208000014878000000E80002487800C810DE002F
:102090000000E8000148780066014100CC04A90076
:1020A000A226880083E0A9007886AB0004003200F5
:1020B000CC04A800CD04A80083E0A80002003700EB
:1020C00083E0A800F7FF370000000600E487470020
:1020D000889FBE008A9FBE008C9FBE008E1F780026
:1020E00020408000F126800045202000818252009F
:1020F000CC04AB0012003A0082A120000201400093
:1021000031802000914078003340800083BF9F00E1
:10211000474080005940800024802000144278000D
:10212000362020000004EB008AA12000BECDB300C1
:102130001CC0B3003DC0B3008045EB003F0037003A
:102140002540880058003700B24178000104E000C3
:1021500008003A00E1CF410013003A000000E80017
:10216000860F500035003600080078000A0178001C
:1021700032003700E2CF50001200320005003E006E
:102180000104E00008003200E1CF50001E003A00D8
:102190001F003700E3CF50000D003200E4CF5000A5
:1021A00019003A00120037008ECF51001E003A008D
:1021B00080BF9F0088047800880378008C407800F6
:1021C000190037008383FB008D407800160037002C
:1021D000C819DD00878371000F0032000320200042
:1021E000838F53000F003E008140E8000E0037004F
:1021F0008904E800878F54000B0039000C427800F6
:102200008B407800080037008B40780006003700CC
:1022100021C0B300040037000C4278008B407800E6
:10222000010037008B4078000000E800860F500066
:1022300002003600080078000A017800808F520002
:102240000C003A0081417800328020000349780078
:10225000204088000FB89700304088004740880031
:10226000594088000441780021802000824878008D
:102270000D0037000404E000B3FF32000141780094
:102280003380200082497800204088008FB9970071
:1022900033408800474088005940880084407800D7
:1022A00020802000014878004F0778004F06BE00CC
:1022B0004F05BE004F04BE004F00B10000000600F5
:1022C000D0002400003B88000500FC0050052000E1
:1022D000303B8800A00A2000303B880061E7A8005E
:1022E00000000000000000000000000000000000EE
:1022F0000000000001002800023B80000280600016
:10230000FDFF3A00003B80004D00DE0061406000B0
:1023100000000600213B8800103B880030002400AC
:10232000003B88000500FC0050052000303B880081
:10233000A00A2000303B880061E7A80000000000F0
:10234000000000000000000000000000000000008D
:1023500001002800023B800002806000FDFF3A007F
:10236000003B80004D00DE00614060000000060080
:102370000400FA0013002400033B8800213B88007E
:10238000103B8800A4028000A00F2000A00288005B
:1023900082007800658057008F01E900316878007D
:1023A000830F5000FDFF3A000000EB00EFB89700EC
:1023B0000108BB00FFB897000188BB0042409000B5
:1023C000C0FF9F00D2409000D1FF9F00624090006C
:1023D000E0FF9F0072419000F2FF9F00200020006C
:1023E000EFB897000108BB00FFB897000188BB0059
:1023F0000500FC0050052000303B8800A00A2000AA
:10240000303B880061E7A8000000000000000000E9
:102410000000000000000000000000000100280093
:10242000023B800002806000FDFF3A00A4028800A9
:10243000003B80004D00DE00614060000080FA003B
:10244000000006001C0C00001400000080000000CA
:102450000C080000060000008000000000080000DA
:102460000C00000080000000180A000004020000B8
:10247000800000001208000006020000800000003A
:042480000000000058
:042FF80001010000D3
:10300000001A040000000000601C04000000000022
:103010008A1C040000000000481C0400000000009E
:10302000B61C040000000000E01C040000000000CA
:10303000481C040000000000481C040000000000C0
:10304000481C040000000000041B040000000000F5
:10305000481C040000000000481C040000000000A0
:10306000481C040000000000481C04000000000090
:10307000481C040000000000481C04000000000080
:10308000481B040000000000481C04000000000071
:10309000481C040000000000481C04000000000060
:1030A000481C040000000000481C04000000000050
:1030B000501B040000000000481C04000000000039
:1030C000481C040000000000481C04000000000030
:1030D000481C040000000000481C04000000000020
:1030E000481C0400000000000C1B0400000000004D
:1030F000481C040000000000481C04000000000000
:10310000481C040000000000481C040000000000EF
:10311000481C040000000000481C040000000000DF
:10312000481C040000000000481C040000000000CF
:10313000481C040000000000481C040000000000BF
:10314000481C040000000000481C040000000000AF
:10315000481C040000000000481C0400000000009F
:10316000481C040000000000481C0400000000008F
:10317000481C040000000000481C0400000000007F
:10318000481C040000000000481C0400000000006F
:10319000481C040000000000481C0400000000005F
:1031A000481C040000000000481C0400000000004F
:1031B000481C040000000000481C0400000000003F
:1031C000481C040000000000481C0400000000002F
:1031D000481C040000000000481C0400000000001F
:1031E000481C040000000000481C0400000000000F
:1031F000481C040000000000481C040000000000FF
:10320000481C040000000000481C040000000000EE
:10321000481C040000000000481C040000000000DE
:10322000481C040000000000481C040000000000CE
:10323000481C040000000000481C040000000000BE
:10324000301B040000000000481C040000000000C7
:10325000481C040000000000481C0400000000009E
:10326000481C040000000000481C0400000000008E
:10327000481C040000000000481C0400000000007E
:10328000481C040000000000481C0400000000006E
:10329000481C040000000000481C0400000000005E
:1032A000481C040000000000481C0400000000004E
:1032B000481C040000000000481C0400000000003E
:1032C000481C040000000000481C0400000000002E
:1032D000481C040000000000481C0400000000001E
:1032E000481C040000000000481C0400000000000E
:1032F000481C040000000000481C040000000000FE
:10330000481C040000000000481C040000000000ED
:10331000481C040000000000481C040000000000DD
:10332000481C040000000000481C040000000000CD
:10333000481C040000000000481C040000000000BD
:10334000481C040000000000481C040000000000AD
:10335000481C040000000000481C0400000000009D
:10336000481C040000000000481C0400000000008D
:10337000481C040000000000481C0400000000007D
:10338000481C040000000000481C0400000000006D
:10339000481C040000000000481C0400000000005D
:1033A000481C040000000000481C0400000000004D
:1033B000481C040000000000481C0400000000003D
:1033C000481C040000000000481C0400000000002D
:1033D000481C040000000000481C0400000000001D
:1033E000481C040000000000481C0400000000000D
:0C33F000481C0400000000000301000065
:103400004F1524000E7F24000E01880000000000EC
:10341000000020000000E000020032000001200057
:1034200020028800140007007A0107000000E00075
:1034300003003A0080C12200010020000200370092
:103440000000200001002000810F70000100320008
:1034500014000700000020000000E000020032001D
:1034600000000200000000005227020000000000DF
:103470000040DA000000FE004440A90000022000E5
:103480000000E000030032000020200090018800CE
:103490004440A800000006008A1F78008B1F7800B7
:1034A00000000600A1028800800478000000EB0004
:1034B0001F003700E284440054A0B4009905BA000C
:1034C000E284440054A0B4009906BA00E2844400A7
:1034D00054A0B4000006EB00476FDE00FD07B20009
:1034E000AE018800636CE10003003A00EAFF0700C8
:1034F0000000EB000E003700606CE10008003A00AD
:10350000004DEB000A05E800020039003420EC0011
:103510000AF0A0008B05E900F9FF3E000400370027
:103520006168E100010032000086EB000B0007003B
:1035300019C7BA001905BA000E04E00003003A00EA
:103540000A00E000DBFF3A0000000600FE07B200C0
:10355000AE0288008A047800F5FF37000CD0A30083
:10356000E20F4D001C00390089027800354DBA0089
:103570000A05E800020039003420EC000AF0A0003F
:103580008B05E9000F003200254DBA000A05E8005E
:10359000020039003420EC000AF0A0008B05E9009D
:1035A000080032000C00E0000600320015CDBA0021
:1035B0000A05E800020039003420EC000AF0A000FF
:1035C0008B05E9008984E80054A0B4000B00E000FA
:1035D000E2FF3A00000006009902BA00055D78009B
:1035E0008B05E900F7FF3200C82ADE00055D780090
:1035F0008B05E900F3FF32000C00E000F1FF320020
:1036000019DDBA00EEFF3700A3E1A800A1E1A80090
:103610008800A900004006003600F800809FBE0028
:10362000829FBE00849FBE00869FBE003D030700B0
:1036300060E42100404188002A28EF000268A800C9
:103640008A80A9009A80A9004F03BE004F02BE00E5
:103650004F01BE004F00BE003600F90000400600DA
:1036600047E7A9009800A9006DE2A90091E2A9002E
:10367000A221EF007AE6A90076E6A80088E6A80075
:103680000228A8008FE0A9009FE0A90000400600E2
:10369000A221EF00A021EF0088E0A9000040060071
:1036A00000A0FE00849FBE00869FBE00881F780099
:1036B0002571200048E7AB0001003A002572200088
:1036C0004180200091407800E1CF50004C00320052
:1036D000F30C80008301E900D30C88000184FB0017
:1036E000304080000240800002015000820F5400F0
:1036F00038003E000104E0001300320032032400D1
:103700008143E9008783FB008201E8008383430053
:103710004683200041408000D281FB00838141002C
:1037200001824000E581790003337A008100E800DE
:10373000414088000808E300010039000828EF0034
:10374000870F5100F3FF3A00080078000028B4000A
:10375000504080000008A30018003A00624080003A
:103760007340800061015100E0815900624088008F
:10377000734088006240800073408000E00F510079
:10378000E08F59000D003A000018A30002003A0033
:1037900078E6AB0034003A0047E7A9009800A9009A
:1037A0006DE2A90091E2A900A221EF007AE6A9004A
:1037B00076E6A80088E6A8000228A80089A0A9004B
:1037C0004F0478004F03BE004F02BE000080FE0091
:1037D000004006000248A8000228A80047E7A90008
:1037E0009800A9006DE2A90091E2A900A221EF00D2
:1037F0007AE6A90076E6A80088E6A800BDFF3700B3
:103800003140800000408000810F50000A003900E4
:103810000248A8000228A80047E7A9009800A900CC
:103820006DE2A90091E2A900A221EF007AE6A900C9
:1038300076E6A80088E6A80040408000000140002D
:1038400043832000953179000000E8004040880063
:1038500042408000810F5100010039000828EF002C
:103860000028EC00BAFF370047E7A9008FE0A90065
:103870009FE0A80089A0A9004F0478004F03BE0074
:103880004F02BE000080FE0000400600D1FF37005E
:103890003200F8003400F800881F7800180020007B
:1038A000A801880008202000980188004F047800B3
:1038B0000000FE003400F9003200F900004006006C
:1038C0003600F800809FBE00829FBE00849FBE002D
:1038D000869FBE003200F8003400F800100020007F
:1038E000A001880000202000900188008020A9000D
:1038F000770507003400F9003200F9004F03BE00DD
:103900004F02BE004F01BE004F00BE003600F9005E
:10391000004006003600F800809FBE00829FBE0077
:10392000849FBE00869FBE003200F8003400F8007D
:1039300010002000A00188000020200090018800D5
:10394000D1070700904188008060A9003400F90089
:103950003200F9004F03BE004F02BE004F01BE000F
:103960004F00BE003600F900004006003600F800A7
:10397000809FBE00829FBE00849FBE00869FBE00C7
:103980003200F8003400F80010002000A001880088
:1039900000202000900188008040A9004C0507000D
:1039A0003400F9003200F9004F03BE004F02BE00A0
:1039B0004F01BE004F00BE003600F9000040060077
:1039C0003600F800809FBE00829FBE00849FBE002C
:1039D000869FBE003200F8003400F800100020007E
:1039E000A001880000202000900188008080A900AC
:1039F000370507003400F9003200F9004F03BE001C
:103A00004F02BE004F01BE004F00BE003600F9005D
:103A1000004006000000050003F0A200889FBE00E1
:103A20008A9FBE008C1F7800B2000700B9003300E7
:103A30006450E1004F0032006420E1005200320087
:103A400003826C0007003B000905D0000306D0008C
:103A5000820F54000C065D000200390002003200A3
:103A600089017800030678008582550004003D0036
:103A70000003FD008103FD008502EA008B85420002
:103A8000840F720002003B0060001000E08018000C
:103A90006011B8000005EB007A28E1000A00390047
:103AA00006007800C75DDD00F707B200878075006B
:103AB0002D003700828171000A01780061056000E5
:103AC0008180D1000080D3008502E900F9FF3B002E
:103AD000060440008784480002003B006004140094
:103AE000E0841C000988A300070032008A8171006D
:103AF00082817100610164008904D1000884D300CF
:103B00008B05E800170037000978A30013003A007E
:103B10000B00E000130034008B05E90008044400AA
:103B200089844C000A4474000978A3000D003A000F
:103B30000B00E000070034008B05E9000804440096
:103B400089844C0001003A000B0020000978A30092
:103B5000F7FF32000001EB000200370082817100A4
:103B60000A017800280007000CF0A70001F0A0006F
:103B7000710037006420E10002003A00838F6C007E
:103B8000710033000801BE000200BE006A00370069
:103B90000001BE00420007000470A70003F0A1006E
:103BA00003F8A30013003A006509B10010003200C9
:103BB000090035006928E1000200350001002800F5
:103BC0000000050000004000818048008502E900F7
:103BD000FCFF3A0000000600F88F420005003500A7
:103BE0008100D1000080D3008502E800FCFF3A008C
:103BF000000006008000EB00000005004F89DE0099
:103C00008201780087003700810020006180550024
:103C10000B003D000B00200061FE2F000100E100C1
:103C20001D00340082817100610164008904D100AB
:103C30000884D3000000E800FAFF3A007100200079
:103C4000610064000300700002006000090032009F
:103C500061044400E0844C000988A500050032009E
:103C60008B05E8006808E10002003A008904D100F1
:103C70000884D300F20F20000258E10005003D0047
:103C8000C75DDD00F907B200898075000800780083
:103C9000000006000BF827008B00780000000500EC
:103CA000C70ADE00F107B200F50FB20008003200CB
:103CB000E1CF4200020032000170A00024000500A4
:103CC000810F700001003200040805004400050067
:103CD000810F700002003A00140005008502E9001F
:103CE0000000400081C04800FCFF3B000170A000C4
:103CF000240005000004BE00E9FF07000003BE0029
:103D00000405BE000200BE00E5FF0700844F7500F9
:103D1000000006000200BE006450E100050036000D
:103D20006420E100020036000968A30001003A00A7
:103D30000800BE000160A0004F0678004F05BE00DD
:103D40004F04BE0000000600F0FF2F00F1FF270027
:103D5000F9FF3700889FBE008A9FBE008C1F780045
:103D6000E4FF0700EBFF330003866C006450E100C2
:103D7000240032006420E100270032006150E1009D
:103D8000220032006120E100210032008B854200D8
:103D9000EB07B1000134B800003AB8000804420053
:103DA00089844A00013AB8000030B8008880400099
:103DB00009014A00040033000000400081804800EF
:103DC000020149008B05E900C909DD00830170008B
:103DD0000100320013002000C814DE004814DD008A
:103DE0004709DE001200B200C808DE000884700037
:103DF00085FF070001F0A1000CF0A70001F0A00072
:103E0000CDFF37006120E100CFFF32000801BE0086
:103E10000200BE00F7FF37006150E100FCFF3A00EE
:103E2000C9FF3700881F7800030478000300E00012
:103E300007003D0060001000E080180060011900DC
:103E4000E081190002003B0001F02D000300370063
:103E50000400070008F0A70001F0A0004F0478005C
:103E600000000600889FBE008A9FBE00008270008E
:103E70000402710004827100260032000004BE00BA
:103E80000200BE006011B8006B09200095022000FE
:103E90000182CF000A0039000541B1000082CF0045
:103EA000070039000541B1000982CF000400390044
:103EB0000541B1000882CF00010039000541B10081
:103EC00005425200120032000A003B00828171005C
:103ED000610164008100D1000080D3008984D30097
:103EE0000884D3008B05E8000442E800F7FF3A009D
:103EF000070037000804440089844C000000480093
:103F0000818048008B05E9000442E900F9FF3A008E
:103F10003DFF07004F05BE004F04BE000000060035
:103F20000205000003040000080700000609000065
:103F30000003000001020000060500000407000065
:103F40000400000020000000080000001000000035
:103F5000000100008000000040000000000200009E
:103F600047E7A9009800A9006DE2A90091E2A90025
:103F7000A221EF007AE6A90076E6A80088E6A8006C
:103F8000000006001828EF000828EF000028EF00C6
:103F900000000600C04080000808E3000200310075
:103FA0000608B500000006000808B500000006007D
:103FB000C04080000000400041832000010040001C
:103FC0000000060011408000E1C060000248AB0024
:103FD000010032000114A0000268AB0001003200B1
:103FE0000124A00003408000C240800044408000C3
:103FF000820F52000A00310034408000020152005A
:104000000148780003687800C819DE00036878006A
:10401000026878004811DE00124098000000060097
:104020004440800002015200014878000368780093
:10403000C819DE0003687800026878004811DE00C5
:104040001240980000000600F5FF370011C0B300D1
:104050002281200001497800B04088001428EF0038
:10406000000006001248E2001E003200B24080004C
:10407000F1268000810051000100A100A0408000D5
:10408000808F50000A003200008050000000D100F4
:104090000028B500C340800003004000C0408800F5
:1040A0000608E30001003E001828EF00A140880048
:1040B000D604AB000B003A00A04080000000510085
:1040C0000000D1000028B500C2408000020040007E
:1040D000C04088000608E30001003E001828EF00F9
:1040E0001268EF00000006000268EF000A68EF00A7
:1040F0001268EF0080FF2F00420580008200600000
:104100005100B30041058800B200B6000020A000B5
:1041100090058800F1FF28003206800002806000D0
:1041200000E0A00030068800F0F82F00AE00B600D6
:104130000060A0007005880050058000808060004D
:104140000000260001007000500588008906A800C4
:10415000F00F2C009007B60000B0A000803C880053
:1041600088E6A80000472000303A880000002400BC
:10417000403A880040E02100503A88005227EF0082
:1041800020002000603A880089A0A90099A0A90019
:1041900047E7A800000006000200FA000081EB00DB
:1041A0000208AB0012003A006700600002F9290023
:1041B000624078000080FB00603A88004607A90052
:1041C0004627A8004607AB00FEFF320089A0A900E1
:1041D00092388000F2BF9F000100E000040032002E
:1041E0006FF89700804878007FF89700904098001B
:1041F000020078000080FA00000006004627EF0069
:1042000041802000914078000180FB000000E9001F
:10421000C201DD002240240003017100423A8800FF
:104220004E27EF001008F8005007F9000A28AB00ED
:1042300016003A007AE6A90088E6A90076E6A90009
:104240009222EF009422EF009622EF00024220001B
:104250008214880022028200321588001202820035
:1042600022158800A222EF00A022EF003242200097
:1042700062138800320020007213880002102000B0
:10428000921388008822EF008422EF00E1CF5000D3
:104290001C00320041422000313A880041002000D9
:1042A000513A8800A221EF00F1072000F10C8800AC
:1042B000F10C80008100E900D10C88008900A90080
:1042C000A021EF00CF80DE004CFE0700020020009E
:1042D000033024009FFE070002002000032024007A
:1042E000CEFD07002AFE0700E00C88009621EF00B3
:1042F00088E0A90098E0A80089A0A90099A0A800DA
:104300000000060040412000303A880040002000B4
:10431000503A880089A0A90099A0A80000000600D2
:10432000F8FF370047E7A800000000000000000089
:10433000000000000000000000000000000000007D
:10434000000000000000000000000000000000006D
:104350004627A800500020000304070004C8BF003F
:10436000E14F5000020036008800A9009800A80024
:104370000A28AB0001003200000006006DE2A80030
:1043800091E2A800000000002002820010148800C2
:1043900010028200001488000000060080407800AF
:1043A0000040EB000208AB0016003A006DE2A900E5
:1043B00091E2A9006C22EF006E22EF007022EF0064
:1043C0007222EF009022EF009222EF009422EF0081
:1043D0009622EF00E1CF50000B00320004003100C4
:1043E0007AE6A90076E6A80088E6A8001000050095
:1043F000E2CF5000090032000040EB00E3CF500054
:104400000A003200000006007AE6A90088E6A9004A
:1044100076E6A90001407800000006007AE6A800D0
:1044200088E6A90076E6A900100005007AE6A90052
:1044300088E6A90076E6A9000042200080148800E2
:10444000F0E7230001002000A622EF0020158800DD
:10445000A222EF00A022EF007022EF0032422000E3
:1044600062138800320020007213880002102000BE
:10447000921388008822EF008422EF006DE2A800EA
:1044800091E2A800000000008222EF0000148800E2
:10449000100005000004E0000B003200E1CF5000E6
:1044A0000B003200040031008220A9008A80A9009C
:1044B0009A80A80000000600E2CF500008003200F9
:1044C000E3CF50000D0032009A80A90000000600E2
:1044D0008220A8008A80A9009A80A8000000060017
:1044E0008220A9008A80A9007906AB000100320071
:1044F0008A80A8009A80A800000006008220A800F8
:104500008A80A9007906AB00FAFF3A008A80A800E9
:10451000F8FF37000800FA00889FBE008A9FBE009F
:104520008C1F780030019000C001900061015100A3
:10453000E08159008040EB00D4092000840F510035
:10454000E08F59004E00360047E7A9009800A90007
:104550006DE2A90091E2A900A221EF007AE6A9008C
:1045600076E6A80088E6A8003001BE00E2018A00D5
:10457000F3018A003001BE0002028A0013028A00A1
:104580001000780020028A00C803240098447800B4
:10459000814278003703240002FA2900870178005D
:1045A0000003EB0011C0B3000000EB008AF9290002
:1045B0008069780009C26000060032000582FB00B5
:1045C0006A467800F28557008C757A0012037300F2
:1045D0008542E8000000E8000281E800E80F500092
:1045E0002D00320081C04000F1FF3700400324005D
:1045F0000048EB001828EF000828EF000028EF0023
:104600000268EF000A68EF001268EF001428EF005C
:10461000F001820001028200E00F5000E08F58009C
:10462000430032000A08A9006040880071408800F9
:104630001002820021028200E00F5000E08F58003B
:1046400041003A000A28A8000208A800EBFE070073
:10465000001020001800600041003A000268A80025
:104660008040EB00014078008AFF070061E42100F0
:104670000040EB00250307002AFF070011C0B3002C
:10468000014078004F0678004F05BE004F04BE0081
:104690000080FA00000006004080200005487800F5
:1046A000864088008040EB000504E000F4FF320003
:1046B0000582FB0000C02100110009000400D800A1
:1046C0000480B90030408800E1CF5200C7FF3200BB
:1046D0008000EB000400E000C6FF34008042EB00E5
:1046E0000000EB00810F500007003200728157007C
:1046F000E24178000203780066C1780082CF510061
:10470000010031008542E8000000E800800F5200FF
:10471000F4FF3C00856B78008100E800810F5200B7
:10472000B4FF34008042EB000000EB00EDFF3700E7
:104730000A08A8001002820021028200E00F500047
:10474000E08F5800BFFF32000A28A9000208A80025
:10475000AAFE07000010200018006000BFFF320012
:104760000268A900C1C823000040EB00E70207006F
:10477000E1018200C908DE00E3C0600010C0B300A0
:1047800044FF070010C0B3004F0678004F05BE007D
:104790004F04BE000080FA0000000600BEFF370094
:1047A0001040800061406000000006000208AB007D
:1047B0000900320047E7A9009800A9006DE2A900AE
:1047C00091E2A900A221EF007AE6A90076E6A8000E
:1047D00088E6A8000228A8000000060021FE0700C5
:1047E0000208AB00020032000228AB0001003A00D0
:1047F000000006000208A900D802070000472000B8
:10480000303A880000002400403A880040502000E0
:10481000503A88005227EF0020002000603A8800BC
:1048200089A0A90099A0A90047E7A80000000600F8
:104830000C00FA00889FBE008A1F78009F020700C4
:10484000910307001A48E20018003A003048E200DD
:1048500005003A00E1FF07004F0578004F04BE0055
:104860000080FA0000000600ED0307000004E000ED
:10487000F8FF32006686A800820C8000F106230053
:10488000020078009001B500810F5000FCFF360057
:104890008F010700D1FF07004F0578004F04BE00CD
:1048A0000080FA0000000600EFFF3700B9020700A1
:1048B000B802070000447800B60207000085FB003C
:1048C000B40207004800DD000A0570000880FB0004
:1048D0008000EB0070005000E0805800320420009F
:1048E000820F5000E08F58000B0036000042EB00B2
:1048F000F28157008004EB0011C0B3000901780079
:10490000084078002C0307001A68EF003048E200E6
:10491000D0FF3200D4FF370000600100F5003700FF
:10492000C80037009F0037008F003700AF00370006
:10493000EEFF3700EDFF3700ECFF3700EBFF3700ED
:10494000EAFF3700E9FF3700E8FF3700E7FF3700ED
:10495000E6FF3700E5FF3700E4FF3700E3FF3700ED
:10496000E2FF3700E1FF3700E0FF3700DFFF3700ED
:10497000DEFF3700DDFF3700DCFF3700DBFF3700ED
:10498000DAFF3700D9FF3700D8FF3700D7FF3700ED
:10499000D6FF3700D5FF3700D4FF3700D3FF3700ED
:1049A000D2FF3700D1FF3700D0FF3700CFFF3700ED
:1049B000CEFF3700CDFF3700CCFF3700CBFF3700ED
:1049C000CAFF3700C9FF3700C8FF3700C7FF3700ED
:1049D000C6FF3700C5FF3700C4FF37007800370037
:1049E00088003700590037003200370021003700B7
:1049F000BEFF3700BDFF3700BCFF3700BBFF3700ED
:104A0000BAFF3700B9FF3700B8FF3700B7FF3700EC
:104A1000B6FF3700B5FF3700B4FF3700B3FF3700EC
:104A2000B2FF37002D00370000003700E20F5500BD
:104A3000BE003E000042EB00F28157008004EB0014
:104A400011C0B300A1BF9F00C3BF9F00B4BF9F00B0
:104A500036020700AFB89700CFB997003FBA97006A
:104A60000901780008407800D30207001A68EF00B7
:104A7000A6FF3700C03380004800DE0061406000C0
:104A8000E0EF9F000042EB00F28157001900200088
:104A900084407800A1BF9F00C3BF9F00B4BF9F00A8
:104AA00022020700AFB89700CFB997003FBA97002E
:104AB000EBFF3700E10F5500DEFF3A0038FF07003B
:104AC0000004E000B70032000042EB00F281570022
:104AD0008004EB0031C0B300DAFF3700E40F55006B
:104AE000D4FF3A002EFF07000004E000F6FF3A0072
:104AF000280207008084FB00260207004805DD002D
:104B000009057500230207008084FB0021020700CD
:104B10004800DD008904700000802300808F54006D
:104B20006F003E0042832000890078000A00780070
:104B30004F0107000000E0006900320014C0B3001C
:104B4000438320008040EB00BEFF370010C0B3005D
:104B500030E8B7000042EB00F28157008004EB0020
:104B600084407800B7FF3700E20F5500B1FF3A00EC
:104B7000080207008084FB00060207004800DD00F1
:104B80008904700003FD0700808F540092003600F6
:104B90000042EB00F28157008004EB0041C0B300FB
:104BA000A8FF37007280570006FD07000042EB00A7
:104BB000F28157005900200084407800A1FF37009F
:104BC0000A00E0009BFF3200F201070000404000B5
:104BD000C1C82300CD0107000042EB00F28157005D
:104BE0008004EB008440780096FF3700EFFE07005A
:104BF0000042EB00F28157008004EB008440780013
:104C000090FF370020C4B300E0EF9F0010C0B30056
:104C1000F0EF9F0031C0B30081F79F0090F79F0035
:104C2000BA000700A0F79F004800DE00B0F79F0021
:104C30000042EB00F28157006900200084407800B8
:104C400080FF3700EA0F55007AFF3A00D4FE0700D4
:104C50000004E0009CFF3A00CE010700C1142400CC
:104C600080487800CB010700D114240080487800E8
:104C7000C8010700E114240080487800C50107003E
:104C8000F114240080487800C201070001152400B7
:104C900080487800BF010700111524008048780083
:104CA000BC0107002115240080487800B9010700E5
:104CB0003115240080487800B6010700A9142400AB
:104CC000804C7800B30107008900E8008048780034
:104CD000090078000FFE07000004E0002C003A00F5
:104CE0000042EB00F28157008004EB0021C0B300CA
:104CF00054FF3700E10F55004EFF3A00A5010700B1
:104D0000E74F5000F6FF3E00F280570022FD0700FB
:104D1000E10F40006CFF32000042EB00F2815700CF
:104D2000290020008440780046FF37009CFE0700E1
:104D30000004E00064FF3A00960107008084FB0055
:104D4000940107004800DD0089047000F08F4400E2
:104D50002B00320000002800808F54003000320009
:104D60003148E2008AFF32000A85E9008A007800B3
:104D70004083200091010700428320008A007800D0
:104D800009007800F00007000000E000D4FF3200C6
:104D90000042EB00F28157008004EB008440780071
:104DA00028FF37007B0107007CFD07000004E000BE
:104DB000CBFF3200C03380004700DE00614060005E
:104DC000E0EF9F000042EB00F28157008A04780078
:104DD000844078001BFF37008984440074FC07007E
:104DE0008001780009007800C3BF9F0097FC07008E
:104DF00014C0B3008040EB00CFB9970011FF37001B
:104E0000E40F5500180032003168EF000042EB005B
:104E1000F28157008004EB008440780009FF3700DE
:104E2000E40F5500DAFF3A005A01070051C5B300FC
:104E3000814F5000D6FF3A0056010700A1CAB300C7
:104E4000814F5000D2FF3A000D0107000004E0003E
:104E5000CFFF3A000042EB00F28157008004EB00E4
:104E600061C0B300F7FE37004A01070051C5B30027
:104E7000814F5000E4FF3A0046010700A1CAB30089
:104E8000814F5000E0FF3A0010C0B30031E8B70096
:104E90000042EB00F28157008004EB008440780070
:104EA000E8FE37000C0007008FFC070053010700E5
:104EB0003068EF003168EF006686A9000060FE00F0
:104EC0005BFE07000060FE0059FE0700FBFF370095
:104ED0000000FE0000000600D000200050338800D3
:104EE000F0002F00F033880076E6A8007706A800CF
:104EF0006686A8006286A9009421EF0000032000C6
:104F00009421B70095E1A80000000600A1028000EE
:104F10005420EF00C07F21001000BA008180FB0008
:104F2000A102880000000600213B8800103B880099
:104F300030002400003B88000500FC0050052000E4
:104F4000303B8800A00A2000303B880061E7A800C1
:104F50000000000000000000000000000000000051
:104F60000000000001002800023B80000280600079
:104F7000FDFF3A00003B80004D00DE006100600054
:104F8000000006000400FA0013002400033B880020
:104F9000213B8800103B8800A3028000A00F200066
:104FA000A00288006480570003000900325878008E
:104FB0004200B1000000EB00EFB897000108BB0011
:104FC000FFB897000188BB0064805700E4004100EF
:104FD0000300090031587800200020006FB99700C5
:104FE0000208BB00FFB897000188BB000500FC0069
:104FF00050052000303B8800A00A2000303B88008C
:1050000061E7A800000000000000000000000000B0
:10501000000000000000000001002800023B8000AA
:1050200002806000FDFF3A00A3028800003B800080
:105030004D00DE00614060000080FA0000000600C4
:105040000400FA00E0BF9F00F1BF9F00A2028000B1
:105050007FB89700A00288006FB897009080BA00D0
:105060001000BA00A20288000080FA0000000600CA
:105070000400FA00889FBE008A9FBE008C9FBE007D
:10508000800478000104780082057800090144005A
:105090000000EB0001002300810F510005003600E5
:1050A0004F06BE004F05BE004F04BE000080FA0050
:1050B000000006000906D1000C00A1008006EB00EC
:1050C0000C00BE00DEFF070080BF9F0091BF9F0065
:1050D0000000EB000800E000F1FF3200E3C46400D0
:1050E000080578000980FB00F0805700E15D78003A
:1050F0008944E800E4CF5400090032000A05E900C1
:10510000F8FF3A00080078004F06BE004F05BE00C9
:105110004F04BE000080FA0000000600E5FF3700E3
:1051200062064600E0864E000C00BE00C4FF070089
:1051300080BF9F0091BF9F008044EB000A05E900FB
:10514000E8FF3A00EFFF3700EA874700889FBE007C
:105150008A9FBE008C9FBE008E1F780001067800DB
:105160000004EB00F1FF2000810F50000400360026
:105170008001460001002300818F510007003600A6
:10518000080078004F0778004F06BE004F05BE00AC
:105190004F04BE00AF00B10000000600E740600011
:1051A0000005D100C3FF2F00030565008005EB005B
:1051B0000082EB008082EB00D4B79F00E5B79F0030
:1051C000F4B79F0085BF9F000C00E0000E00320086
:1051D000820478000C0478000407780085067800C3
:1051E0000180FB00B9417800768157000371780097
:1051F0008140E800E8CF5000100032000804E900C8
:10520000F7FF3A000C0478000104E000DCFF3200F4
:10521000768157000A00BE005AFF0700E14F500098
:10522000D7FF3A00768157000A00BE0055FF0700FD
:10523000E14F5000F6FF3200D1FF37007681570072
:105240000A00BE004FFF0700E14F5000FBFF320095
:105250000080EB008080EB00D0B79F00E1B79F009B
:10526000FEB79F008DBF9F0064054500E0854D009F
:105270008040EB000804E900D9FF3A00E1FF370065
:10528000008020000100200027FF07008000780038
:105290000040EB000100E00007003A0000002100A0
:1052A0000100200020FF070000F0A7000000EA0036
:1052B0000000E9004F00DE00000006002648E20082
:1052C0000600320051418000800C80000101500036
:1052D00040418000800F51000100310000000600B5
:1052E0006686AA0000804000504188002CC8BF009C
:1052F000FAFF32000040E9002CE8B700F7FF3A005F
:105300006686A9002668EF00000006006686A800F1
:10531000414188002CE8B70010C0B30026E8B70070
:105320009001F8002A08F900000006002648E20073
:1053300009003A006686A800C0C1200040418800EC
:1053400020C0B3002CE8B70010C0B30026E8B700B7
:105350009001F8002A08F900000006002668EF0016
:105360006686A900000006002E28EF000000E0007D
:10537000070032008000EB000A0009000000000076
:105380008100E800810F5000FBFF3E007041880063
:1053900000000600014180006004240060C0780025
:1053A0008100E8000141880032102000828F500007
:1053B000010036002028EF00000006000100E00098
:1053C0000D003200024180008001EB0065042400E2
:1053D00034102000655879000201E800840F510064
:1053E000010036000001EB008301E800838F5000CC
:1053F000F8FF3E0002418800000006001A68EF0036
:105400002428EF001E68EF001C28EF002028EF0082
:105410007686A80076A6A8007726A80076C6A800FB
:1054200001FC2F00D23D8000028060000020A0001F
:10543000D03D8800C33D8000038060006000B30061
:10544000C03D8800F20F2C00C53D80008501610041
:105450000050200003007000C03D8800F00F2800BD
:10546000E33E80000302600003702000848171002D
:10547000E33E88009F40A9009940A900F423EF0073
:10548000032080008F40A9008940A9000BE4A800F8
:1054900055208000050161000280A0005220880094
:1054A0000AE4A80052208000828060000100A00071
:1054B00051208800FCC3A900F4E3A800F403A8006D
:1054C000F503A900F623EF00F783A800F7A3A800CF
:1054D000F743A800F823EF000C24EF000180200020
:1054E00041268800CAA4EF00C5E4A800C404A800AF
:1054F000CC04A900D604A900F1F32F00C34C20006E
:1055000093896000F4FC2F0065268000050162008D
:105510000240A00062268800CC24A80033FF2F00A0
:1055200065268000058161000220A00062268800B7
:10553000CD24A800CE24EF007226800082026000F5
:1055400002602200050171007226880002402000DE
:1055500082268800650424009526880045102000D6
:10556000A5268800CC04A800D604A900B526800092
:10557000858060000160A000B1268800614D200098
:1055800091086200D624A800654D2000958A61002C
:10559000D724A800E2268800DE24EF00D824EF00FC
:1055A000D804B6000170220080807000C1268800F7
:1055B000F5E3A80000000600881F7800D604A900C3
:1055C0000404E00002003200D3268800F22688009E
:1055D000F6F12F0007F02300180280008802630014
:1055E000050AB300150288007886AB001D00320062
:1055F000F81F8000888263001A003A00F5E3A900D2
:10560000F5E3A800F50F200005208800B50D200067
:10561000052088000080FB00002088008180FB00BE
:10562000012088000280FB00002088004810DE0076
:10563000002088000404E0000D003A000200E000B1
:10564000040032003380FB00002088000201E900E2
:10565000FCFF3A00F0F12F004220B6004F04780022
:105660000000060025042000950A6300DAFF3700D9
:10567000D604A800F0F12F004220B6004F047800B5
:1056800000000600F7FF3700889FBE008A9FBE001B
:10569000E04080006204240000014100A126800057
:1056A0004510200081825200E18120009140780065
:1056B0000B4180001741800028418000A481200018
:1056C0001442780080017800B9CDB3000A102000A0
:1056D00036102000808F5200110032000404E000D8
:1056E00043003A00B2417800E2CF50003D00320062
:1056F00020003E000104E00033003200E1CF500002
:10570000120032008040EB000000E800860F5000DD
:1057100012003E0080017800808F5200EFFF3A00B7
:10572000E0812000014878000B4188001741880083
:1057300028418800A081200004487800E3408800C8
:105740004F05BE004F04BE000000060021C0B3009C
:105750000000E800860F5000EEFF36008001EB00ED
:105760000000EB00620424000A1020003610200024
:10577000D8FF3700E3CF50000B003200E4CF5000D9
:10578000E0FF3A000804E800870F5400DEFF39000C
:10579000D604AB0001003200D604A90014C0B30047
:1057A0008040EB00D8FF3700C819DD008783710007
:1057B000FAFF32008040EB008A8F5300D2FF3E0098
:1057C00041C0B300D0FF370089CF5100CEFF3A006F
:1057D000800578000004EB008003EB0011C0B300EB
:1057E000C9FF37008383FB0031C0B300C6FF370019
:1057F000E2812000014978000B41880017418800B0
:1058000028418800A181200084487800E340880076
:105810004F05BE004F04BE0000000600CBFF37005E
:10582000B0268000610060000000A20000000600B9
:10583000340800001238000080000000000800005A
:105840001A00000080000000260800000A00000086
:10585000800000004A4100000A00000080000000B3
:105860003008000004000000800000001A0800005A
:105870000C00000080000000464000000401000011
:1058800080000000000000000E0178007801510047
:1058900032007800B2007800F307200083806000B7
:0458A00000000600FE
:020000040001F9
:045E0000FFFF0000A0
:045E2000FFFFFF0081
:045E30001BFFFF0055
:045E380096FFFF00D2
:045E4000F8F7FF0070
:045E4800F4FFFF0064
:045E5000DEFFFF0072
:045E5800EFFFFF0059
:00000001FF
